:020000040000FA
:020000003128A5
:100008007E1480314E01961E0A280B2813288C1E58
:100018000E280F2813288231B42280312F280B1F75
:10002800162817282F28971F1A281B2823288D1FC2
:100038001E281F2823288231712280312F28171F5C
:10004800262827282F280D1F2A282B282F288231D9
:10005800A52280312F287E1009003228F001F101F5
:10006800F201F301F401F501F6013A3084000030A1
:10007800850017308231CA2280317E104001442821
:1000880082313422803101304001A0000330A100C8
:100098008231E2228031FC304001A0000030A10012
:1000A8008231EE228031FD304001A0000230A100F3
:1000B8008231DC2280318B170B178231F922803193
:1000C80040018C1A682869286E2800308231C322C2
:1000D8008031722800308231D622803140014C03B1
:1000E800031D772878286428CC015008AF004F08F2
:1000F800AE004E08AD004D08AC000030B3000F3024
:10010800B2004230B1004030B00081318E218031E0
:1001180040012F08C1002E08C0002D08BF002C0880
:10012800BE004108031DA4284008031DA4283F0859
:10013800031DA428BF303E02031CA328A428F828C6
:1001480040014108031DB3284008031DB3283F0898
:10015800031DB328DC303E020318B328B428F8285E
:1001680040015008AF004F08AE004E08AD004D08E2
:10017800AC004A08A0004B08A100A201A30100306E
:10018800A7000030A6000030A5006430A40081312B
:10019800E921803140012308B3002208B200210878
:1001A800B1002008B00081318E21803140012F0834
:1001B800BD002E08BC002D08BB002C08BA003D0865
:1001C800031DF2283C08031DF2283B08031DF228F2
:1001D80050303A02031CF128F228F528400118167D
:1001E8006428400118126428400118126428312834
:1001F800843046010E06031D02290329592979086E
:10020800F3007808F20085308E007603031D0D296F
:100218000E298D29F60171087302031D152970082E
:100228007202031C18291929212970087202400139
:10023800C6007108733BC7002E297108FB007008BF
:10024800FA00FA09FB0972087A074001C600730828
:100258007B3DC7004908FB004808FA00FB36FA0C4A
:10026800FB36FA0CFB36FA0C7A08C2007B08C3008E
:100278004708FB004608FA00FB36FA0CFB36FA0C76
:10028800FB36FA0C7A08C4007B08C500420844070C
:10029800CD004308453DCE00CF01D0014508CB0035
:1002A8004408CA00CC01CC0A8D2985300E06031DEE
:1002B8005E295F298D294001181500308231F4220A
:1002C80080317908F1007808F000843046018E000A
:1002D80073087102031D722972087002031C7529C4
:1002E80076297E29720870024001C8007308713BA4
:1002F800C9008B297308FB007208FA00FA09FB0988
:1003080070087A074001C80071087B3DC900F601F2
:10031800F60A080000304001B8000030B70000308D
:10032800B6000030B5002F082E042D042C04031944
:100338009E299F29E029B901B90AAD290130AC35B8
:10034800AD0DAE0DAF0D890BA3290130B4003408F3
:10035800B907AF1FB029B129A2290130B535B60DAB
:10036800B70DB80D890BB2292F083302031DC62912
:100378002E083202031DC6292D083102031DC62985
:100388002C083002031CC929CA29D3292C08B00219
:100398002D08B13B2E08B23B2F08B33B3514013072
:1003A800AF36AE0CAD0CAC0C890BD4290130B902B8
:1003B800031DDF29E029B1293808AF003708AE004E
:1003C8003608AD003508AC00080000304001AB002D
:1003D8000030AA000030A9000030A800201CF52930
:1003E800F629FE292408A8072508A93D2608AA3DBC
:1003F8002708AB3D0130A435A50DA60DA70D890B27
:10040800FF290130A336A20CA10CA00C890B062AE7
:100418002308220421042004031D132A142AF22984
:100428002B08A3002A08A2002908A1002808A00078
:1004380008000130450190008F0191018C308D003A
:100448008C014E010D1317170B304001A00003302B
:10045800A1008231DC228231F13045018E00080092
:100468008231942282318231E82282318331082319
:10047800823182315F22823182311D228231823182
:100488008322823182314A228231080044304B0172
:100498009F009B309D009C014E018C1296160C30DB
:1004A8004001A0000330A1008231E22282318F3066
:1004B8004B019E000800843046018E008F018D019B
:1004C8008C010D304001A0000330A1008231EE22E2
:1004D80082314E018D13971708004E018D13460186
:1004E8000C08FC000D08FD007D08F9007C08F800E8
:1004F800400154088A0053080A0082310800440168
:100508008F019001013091008D018C014E018D12F7
:1005180044010D08F5000C08F40001308E000800B5
:10052800400198012B30920003307E01B800B901D8
:10053800BA013730BB003F30BC0005307D01A10057
:1005480008004E010D134001510852040319AD2A49
:10055800AE2AB32A52088A0051080A0082310800DC
:100568004E018C124001550856040319BC2ABD2AB5
:10057800C22A56088A0055080A008231080040013C
:10058800A10021088231D022823108006400800154
:100598000131890BCB2A00344001A0002008450115
:1005A8008C0008004001A00020084B019C000800B6
:1005B80040012108D2002008D1000800400121088C
:1005C800D6002008D500080051019101053093009C
:1005D8009201080040012108D4002008D300080037
:1005E800F70077084B019C0008008331052382310E
:1005F80008004001181518160800400118111812B3
:10060800080045018E17080050018C0108000800F9
:0406180008000800CE
:020000040001F9
:04000E00CD3FE73FBC
:04001400FF1FFF3F8C
:00000001FF
