:020000040000FA
:020000003128A5
:100008007E1480314E01961E0A280B2813288C1E58
:100018000E280F2813288131BA2180312F280B1F71
:10002800162817282F28971F1A281B2823288D1FC2
:100038001E281F2823288131882180312F28171F47
:10004800262827282F280D1F2A282B282F288131DA
:10005800AB2180312F287E1009003228F001F101F0
:10006800F201F301F401F501F6014001A001A1013B
:10007800A201A301A401A501A601A701A801A90144
:100088007E104001EF28843046010E06031D4D28DE
:100098004E28BA287908F3007808F20085308E00D7
:1000A8007603031D58285928EE28F60171087302B3
:1000B800031D602870087202031C632864286C28DA
:1000C800700872024001A6007108733BA7007928E6
:1000D8007108FB007008FA00FA09FB0972087A0730
:1000E8004001A60073087B3DA7002908FB002808EB
:1000F800FA00FB36FA0CFB36FA0CFB36FA0C7A08D7
:10010800A2007B08A3002708FB002608FA00FB369C
:10011800FA0CFB36FA0CFB36FA0C7A08A4007B08BA
:10012800A50022082407F4002308253DF500123015
:1001380075028F3003197402031CA328A428EE2823
:10014800143075028230031974020318AC28AD28E4
:10015800EE280F302502A13003192402031CB5280C
:10016800B628B8281816EE281812EE2885300E067C
:10017800031DBF28C028EE28400118150030813122
:10018800F42180317908F1007808F00084304601C4
:100198008E0073087102031DD32872087002031CB5
:1001A800D628D728DF28720870024001A8007308F3
:1001B800713BA900EC287308FB007208FA00FA09E1
:1001C800FB0970087A074001A80071087B3DA90067
:1001D800F601F60A080081313621803101304001EC
:1001E800B0000230B1008131E22180314730400156
:1001F800B0000030B1008131EE218031FD30400186
:10020800B0000130B1008131DC2180318B170B1730
:100218008131F921803140018C1A132914291929B7
:1002280000308131C92180310F2900308131D62138
:1002380080310F2931280130450190008F0191014B
:100248008C308D008C014E010D1317170B304001B7
:10025800B0000230B1008131DC218131F13045013B
:100268008E00080081319A2181318131E821813164
:1002780082310822813181317621813181311F21FA
:10028800813181314C2181318131612181310800F5
:1002980044018F019001013091008D018C014E01C4
:1002A8008D1244010D084001A10044010C084001D1
:1002B800A000013044018E00080044304B019F002B
:1002C8009B309D009C014E018C1296160C3040010B
:1002D800B0000230B1008131E22181318F304B0111
:1002E8009E000800843046018E008F018D018C012C
:1002F8000D304001B0000230B1008131EE21813172
:100308004E018D13971708004E018D1346010C08F6
:10031800FC000D08FD007D08F9007C08F80040018C
:100328002D088A002C080A00813108004001980134
:100338002B30920003307E01B800B901BA01373082
:10034800BB003F30BC0005307D01A10008004E0114
:100358000D1340012A082B040319B329B429B9291C
:100368002B088A002A080A00813108004E018C12E5
:1003780040012E082F040319C229C329C8292F08B0
:100388008A002E080A00813108004001B1003108B6
:100398008131D021813108004001B0003008450189
:1003A8008C0008004001B00030084B019C00080098
:1003B80040013108AB003008AA00080040013108AC
:1003C800AF003008AE0008005101910105309300DC
:1003D8009201080040013108AD003008AC00080067
:1003E800F70077084B019C00080082310522813113
:1003F80008004001181518160800400118111812B5
:10040800080045018E17080050018C0108000800FB
:0404180008000800D0
:020000040001F9
:04000E00CD3FE73FBC
:04001400FF1FFF3F8C
:00000001FF
